{
	"data": {
		"bytecode": {
			"linkReferences": {},
			"object": "6080604052348015600e575f80fd5b50610b638061001c5f395ff3fe608060405234801561000f575f80fd5b5060043610610034575f3560e01c80631dda65411461003857806364591bf114610042575b5f80fd5b610040610072565b005b61005c6004803603810190610057919061017b565b6100fd565b6040516100699190610220565b60405180910390f35b5f60405161007f90610137565b604051809103905ff080158015610098573d5f803e3d5ffd5b5090505f81908060018154018082558091505060019003905f5260205f20015f9091909190916101000a81548173ffffffffffffffffffffffffffffffffffffffff021916908373ffffffffffffffffffffffffffffffffffffffff16021790555050565b5f818154811061010b575f80fd5b905f5260205f20015f915054906101000a900473ffffffffffffffffffffffffffffffffffffffff1681565b6108f48061023a83390190565b5f80fd5b5f819050919050565b61015a81610148565b8114610164575f80fd5b50565b5f8135905061017581610151565b92915050565b5f602082840312156101905761018f610144565b5b5f61019d84828501610167565b91505092915050565b5f73ffffffffffffffffffffffffffffffffffffffff82169050919050565b5f819050919050565b5f6101e86101e36101de846101a6565b6101c5565b6101a6565b9050919050565b5f6101f9826101ce565b9050919050565b5f61020a826101ef565b9050919050565b61021a81610200565b82525050565b5f6020820190506102335f830184610211565b9291505056fe6080604052348015600e575f80fd5b506108d88061001c5f395ff3fe608060405234801561000f575f80fd5b5060043610610055575f3560e01c806306c62c2c146100595780636057361d146100895780636f760f41146100a55780639e7a13ad146100c1578063b05784b8146100f2575b5f80fd5b610073600480360381019061006e91906103d4565b610110565b6040516100809190610433565b60405180910390f35b6100a3600480360381019061009e9190610476565b61013d565b005b6100bf60048036038101906100ba91906104a1565b610146565b005b6100db60048036038101906100d69190610476565b6101ca565b6040516100e992919061055b565b60405180910390f35b6100fa61027f565b6040516101079190610433565b60405180910390f35b6002818051602081018201805184825260208301602085012081835280955050505050505f915090505481565b805f8190555050565b6001604051806040016040528083815260200184815250908060018154018082558091505060019003905f5260205f2090600202015f909190919091505f820151815f015560208201518160010190816101a09190610783565b505050806002836040516101b4919061088c565b9081526020016040518091039020819055505050565b600181815481106101d9575f80fd5b905f5260205f2090600202015f91509050805f0154908060010180546101fe906105b6565b80601f016020809104026020016040519081016040528092919081815260200182805461022a906105b6565b80156102755780601f1061024c57610100808354040283529160200191610275565b820191905f5260205f20905b81548152906001019060200180831161025857829003601f168201915b5050505050905082565b5f8054905090565b5f604051905090565b5f80fd5b5f80fd5b5f80fd5b5f80fd5b5f601f19601f8301169050919050565b7f4e487b71000000000000000000000000000000000000000000000000000000005f52604160045260245ffd5b6102e6826102a0565b810181811067ffffffffffffffff82111715610305576103046102b0565b5b80604052505050565b5f610317610287565b905061032382826102dd565b919050565b5f67ffffffffffffffff821115610342576103416102b0565b5b61034b826102a0565b9050602081019050919050565b828183375f83830152505050565b5f61037861037384610328565b61030e565b9050828152602081018484840111156103945761039361029c565b5b61039f848285610358565b509392505050565b5f82601f8301126103bb576103ba610298565b5b81356103cb848260208601610366565b91505092915050565b5f602082840312156103e9576103e8610290565b5b5f82013567ffffffffffffffff81111561040657610405610294565b5b610412848285016103a7565b91505092915050565b5f819050919050565b61042d8161041b565b82525050565b5f6020820190506104465f830184610424565b92915050565b6104558161041b565b811461045f575f80fd5b50565b5f813590506104708161044c565b92915050565b5f6020828403121561048b5761048a610290565b5b5f61049884828501610462565b91505092915050565b5f80604083850312156104b7576104b6610290565b5b5f83013567ffffffffffffffff8111156104d4576104d3610294565b5b6104e0858286016103a7565b92505060206104f185828601610462565b9150509250929050565b5f81519050919050565b5f82825260208201905092915050565b8281835e5f83830152505050565b5f61052d826104fb565b6105378185610505565b9350610547818560208601610515565b610550816102a0565b840191505092915050565b5f60408201905061056e5f830185610424565b81810360208301526105808184610523565b90509392505050565b7f4e487b71000000000000000000000000000000000000000000000000000000005f52602260045260245ffd5b5f60028204905060018216806105cd57607f821691505b6020821081036105e0576105df610589565b5b50919050565b5f819050815f5260205f209050919050565b5f6020601f8301049050919050565b5f82821b905092915050565b5f600883026106427fffffffffffffffffffffffffffffffffffffffffffffffffffffffffffffffff82610607565b61064c8683610607565b95508019841693508086168417925050509392505050565b5f819050919050565b5f61068761068261067d8461041b565b610664565b61041b565b9050919050565b5f819050919050565b6106a08361066d565b6106b46106ac8261068e565b848454610613565b825550505050565b5f90565b6106c86106bc565b6106d3818484610697565b505050565b5b818110156106f6576106eb5f826106c0565b6001810190506106d9565b5050565b601f82111561073b5761070c816105e6565b610715846105f8565b81016020851015610724578190505b610738610730856105f8565b8301826106d8565b50505b505050565b5f82821c905092915050565b5f61075b5f1984600802610740565b1980831691505092915050565b5f610773838361074c565b9150826002028217905092915050565b61078c826104fb565b67ffffffffffffffff8111156107a5576107a46102b0565b5b6107af82546105b6565b6107ba8282856106fa565b5f60209050601f8311600181146107eb575f84156107d9578287015190505b6107e38582610768565b86555061084a565b601f1984166107f9866105e6565b5f5b82811015610820578489015182556001820191506020850194506020810190506107fb565b8683101561083d5784890151610839601f89168261074c565b8355505b6001600288020188555050505b505050505050565b5f81905092915050565b5f610866826104fb565b6108708185610852565b9350610880818560208601610515565b80840191505092915050565b5f610897828461085c565b91508190509291505056fea26469706673582212205da084682343b0c8b570d1976cb780f28a8c7a5a9281d00fb42fee639d885d8964736f6c634300081a0033a2646970667358221220cea78229b67de1730b2b5e541e0b580d7143905cc3e8639396ed65556e97501264736f6c634300081a0033",
			"opcodes": "PUSH1 0x80 PUSH1 0x40 MSTORE CALLVALUE DUP1 ISZERO PUSH1 0xE JUMPI PUSH0 DUP1 REVERT JUMPDEST POP PUSH2 0xB63 DUP1 PUSH2 0x1C PUSH0 CODECOPY PUSH0 RETURN INVALID PUSH1 0x80 PUSH1 0x40 MSTORE CALLVALUE DUP1 ISZERO PUSH2 0xF JUMPI PUSH0 DUP1 REVERT JUMPDEST POP PUSH1 0x4 CALLDATASIZE LT PUSH2 0x34 JUMPI PUSH0 CALLDATALOAD PUSH1 0xE0 SHR DUP1 PUSH4 0x1DDA6541 EQ PUSH2 0x38 JUMPI DUP1 PUSH4 0x64591BF1 EQ PUSH2 0x42 JUMPI JUMPDEST PUSH0 DUP1 REVERT JUMPDEST PUSH2 0x40 PUSH2 0x72 JUMP JUMPDEST STOP JUMPDEST PUSH2 0x5C PUSH1 0x4 DUP1 CALLDATASIZE SUB DUP2 ADD SWAP1 PUSH2 0x57 SWAP2 SWAP1 PUSH2 0x17B JUMP JUMPDEST PUSH2 0xFD JUMP JUMPDEST PUSH1 0x40 MLOAD PUSH2 0x69 SWAP2 SWAP1 PUSH2 0x220 JUMP JUMPDEST PUSH1 0x40 MLOAD DUP1 SWAP2 SUB SWAP1 RETURN JUMPDEST PUSH0 PUSH1 0x40 MLOAD PUSH2 0x7F SWAP1 PUSH2 0x137 JUMP JUMPDEST PUSH1 0x40 MLOAD DUP1 SWAP2 SUB SWAP1 PUSH0 CREATE DUP1 ISZERO DUP1 ISZERO PUSH2 0x98 JUMPI RETURNDATASIZE PUSH0 DUP1 RETURNDATACOPY RETURNDATASIZE PUSH0 REVERT JUMPDEST POP SWAP1 POP PUSH0 DUP2 SWAP1 DUP1 PUSH1 0x1 DUP2 SLOAD ADD DUP1 DUP3 SSTORE DUP1 SWAP2 POP POP PUSH1 0x1 SWAP1 SUB SWAP1 PUSH0 MSTORE PUSH1 0x20 PUSH0 KECCAK256 ADD PUSH0 SWAP1 SWAP2 SWAP1 SWAP2 SWAP1 SWAP2 PUSH2 0x100 EXP DUP2 SLOAD DUP2 PUSH20 0xFFFFFFFFFFFFFFFFFFFFFFFFFFFFFFFFFFFFFFFF MUL NOT AND SWAP1 DUP4 PUSH20 0xFFFFFFFFFFFFFFFFFFFFFFFFFFFFFFFFFFFFFFFF AND MUL OR SWAP1 SSTORE POP POP JUMP JUMPDEST PUSH0 DUP2 DUP2 SLOAD DUP2 LT PUSH2 0x10B JUMPI PUSH0 DUP1 REVERT JUMPDEST SWAP1 PUSH0 MSTORE PUSH1 0x20 PUSH0 KECCAK256 ADD PUSH0 SWAP2 POP SLOAD SWAP1 PUSH2 0x100 EXP SWAP1 DIV PUSH20 0xFFFFFFFFFFFFFFFFFFFFFFFFFFFFFFFFFFFFFFFF AND DUP2 JUMP JUMPDEST PUSH2 0x8F4 DUP1 PUSH2 0x23A DUP4 CODECOPY ADD SWAP1 JUMP JUMPDEST PUSH0 DUP1 REVERT JUMPDEST PUSH0 DUP2 SWAP1 POP SWAP2 SWAP1 POP JUMP JUMPDEST PUSH2 0x15A DUP2 PUSH2 0x148 JUMP JUMPDEST DUP2 EQ PUSH2 0x164 JUMPI PUSH0 DUP1 REVERT JUMPDEST POP JUMP JUMPDEST PUSH0 DUP2 CALLDATALOAD SWAP1 POP PUSH2 0x175 DUP2 PUSH2 0x151 JUMP JUMPDEST SWAP3 SWAP2 POP POP JUMP JUMPDEST PUSH0 PUSH1 0x20 DUP3 DUP5 SUB SLT ISZERO PUSH2 0x190 JUMPI PUSH2 0x18F PUSH2 0x144 JUMP JUMPDEST JUMPDEST PUSH0 PUSH2 0x19D DUP5 DUP3 DUP6 ADD PUSH2 0x167 JUMP JUMPDEST SWAP2 POP POP SWAP3 SWAP2 POP POP JUMP JUMPDEST PUSH0 PUSH20 0xFFFFFFFFFFFFFFFFFFFFFFFFFFFFFFFFFFFFFFFF DUP3 AND SWAP1 POP SWAP2 SWAP1 POP JUMP JUMPDEST PUSH0 DUP2 SWAP1 POP SWAP2 SWAP1 POP JUMP JUMPDEST PUSH0 PUSH2 0x1E8 PUSH2 0x1E3 PUSH2 0x1DE DUP5 PUSH2 0x1A6 JUMP JUMPDEST PUSH2 0x1C5 JUMP JUMPDEST PUSH2 0x1A6 JUMP JUMPDEST SWAP1 POP SWAP2 SWAP1 POP JUMP JUMPDEST PUSH0 PUSH2 0x1F9 DUP3 PUSH2 0x1CE JUMP JUMPDEST SWAP1 POP SWAP2 SWAP1 POP JUMP JUMPDEST PUSH0 PUSH2 0x20A DUP3 PUSH2 0x1EF JUMP JUMPDEST SWAP1 POP SWAP2 SWAP1 POP JUMP JUMPDEST PUSH2 0x21A DUP2 PUSH2 0x200 JUMP JUMPDEST DUP3 MSTORE POP POP JUMP JUMPDEST PUSH0 PUSH1 0x20 DUP3 ADD SWAP1 POP PUSH2 0x233 PUSH0 DUP4 ADD DUP5 PUSH2 0x211 JUMP JUMPDEST SWAP3 SWAP2 POP POP JUMP INVALID PUSH1 0x80 PUSH1 0x40 MSTORE CALLVALUE DUP1 ISZERO PUSH1 0xE JUMPI PUSH0 DUP1 REVERT JUMPDEST POP PUSH2 0x8D8 DUP1 PUSH2 0x1C PUSH0 CODECOPY PUSH0 RETURN INVALID PUSH1 0x80 PUSH1 0x40 MSTORE CALLVALUE DUP1 ISZERO PUSH2 0xF JUMPI PUSH0 DUP1 REVERT JUMPDEST POP PUSH1 0x4 CALLDATASIZE LT PUSH2 0x55 JUMPI PUSH0 CALLDATALOAD PUSH1 0xE0 SHR DUP1 PUSH4 0x6C62C2C EQ PUSH2 0x59 JUMPI DUP1 PUSH4 0x6057361D EQ PUSH2 0x89 JUMPI DUP1 PUSH4 0x6F760F41 EQ PUSH2 0xA5 JUMPI DUP1 PUSH4 0x9E7A13AD EQ PUSH2 0xC1 JUMPI DUP1 PUSH4 0xB05784B8 EQ PUSH2 0xF2 JUMPI JUMPDEST PUSH0 DUP1 REVERT JUMPDEST PUSH2 0x73 PUSH1 0x4 DUP1 CALLDATASIZE SUB DUP2 ADD SWAP1 PUSH2 0x6E SWAP2 SWAP1 PUSH2 0x3D4 JUMP JUMPDEST PUSH2 0x110 JUMP JUMPDEST PUSH1 0x40 MLOAD PUSH2 0x80 SWAP2 SWAP1 PUSH2 0x433 JUMP JUMPDEST PUSH1 0x40 MLOAD DUP1 SWAP2 SUB SWAP1 RETURN JUMPDEST PUSH2 0xA3 PUSH1 0x4 DUP1 CALLDATASIZE SUB DUP2 ADD SWAP1 PUSH2 0x9E SWAP2 SWAP1 PUSH2 0x476 JUMP JUMPDEST PUSH2 0x13D JUMP JUMPDEST STOP JUMPDEST PUSH2 0xBF PUSH1 0x4 DUP1 CALLDATASIZE SUB DUP2 ADD SWAP1 PUSH2 0xBA SWAP2 SWAP1 PUSH2 0x4A1 JUMP JUMPDEST PUSH2 0x146 JUMP JUMPDEST STOP JUMPDEST PUSH2 0xDB PUSH1 0x4 DUP1 CALLDATASIZE SUB DUP2 ADD SWAP1 PUSH2 0xD6 SWAP2 SWAP1 PUSH2 0x476 JUMP JUMPDEST PUSH2 0x1CA JUMP JUMPDEST PUSH1 0x40 MLOAD PUSH2 0xE9 SWAP3 SWAP2 SWAP1 PUSH2 0x55B JUMP JUMPDEST PUSH1 0x40 MLOAD DUP1 SWAP2 SUB SWAP1 RETURN JUMPDEST PUSH2 0xFA PUSH2 0x27F JUMP JUMPDEST PUSH1 0x40 MLOAD PUSH2 0x107 SWAP2 SWAP1 PUSH2 0x433 JUMP JUMPDEST PUSH1 0x40 MLOAD DUP1 SWAP2 SUB SWAP1 RETURN JUMPDEST PUSH1 0x2 DUP2 DUP1 MLOAD PUSH1 0x20 DUP2 ADD DUP3 ADD DUP1 MLOAD DUP5 DUP3 MSTORE PUSH1 0x20 DUP4 ADD PUSH1 0x20 DUP6 ADD KECCAK256 DUP2 DUP4 MSTORE DUP1 SWAP6 POP POP POP POP POP POP PUSH0 SWAP2 POP SWAP1 POP SLOAD DUP2 JUMP JUMPDEST DUP1 PUSH0 DUP2 SWAP1 SSTORE POP POP JUMP JUMPDEST PUSH1 0x1 PUSH1 0x40 MLOAD DUP1 PUSH1 0x40 ADD PUSH1 0x40 MSTORE DUP1 DUP4 DUP2 MSTORE PUSH1 0x20 ADD DUP5 DUP2 MSTORE POP SWAP1 DUP1 PUSH1 0x1 DUP2 SLOAD ADD DUP1 DUP3 SSTORE DUP1 SWAP2 POP POP PUSH1 0x1 SWAP1 SUB SWAP1 PUSH0 MSTORE PUSH1 0x20 PUSH0 KECCAK256 SWAP1 PUSH1 0x2 MUL ADD PUSH0 SWAP1 SWAP2 SWAP1 SWAP2 SWAP1 SWAP2 POP PUSH0 DUP3 ADD MLOAD DUP2 PUSH0 ADD SSTORE PUSH1 0x20 DUP3 ADD MLOAD DUP2 PUSH1 0x1 ADD SWAP1 DUP2 PUSH2 0x1A0 SWAP2 SWAP1 PUSH2 0x783 JUMP JUMPDEST POP POP POP DUP1 PUSH1 0x2 DUP4 PUSH1 0x40 MLOAD PUSH2 0x1B4 SWAP2 SWAP1 PUSH2 0x88C JUMP JUMPDEST SWAP1 DUP2 MSTORE PUSH1 0x20 ADD PUSH1 0x40 MLOAD DUP1 SWAP2 SUB SWAP1 KECCAK256 DUP2 SWAP1 SSTORE POP POP POP JUMP JUMPDEST PUSH1 0x1 DUP2 DUP2 SLOAD DUP2 LT PUSH2 0x1D9 JUMPI PUSH0 DUP1 REVERT JUMPDEST SWAP1 PUSH0 MSTORE PUSH1 0x20 PUSH0 KECCAK256 SWAP1 PUSH1 0x2 MUL ADD PUSH0 SWAP2 POP SWAP1 POP DUP1 PUSH0 ADD SLOAD SWAP1 DUP1 PUSH1 0x1 ADD DUP1 SLOAD PUSH2 0x1FE SWAP1 PUSH2 0x5B6 JUMP JUMPDEST DUP1 PUSH1 0x1F ADD PUSH1 0x20 DUP1 SWAP2 DIV MUL PUSH1 0x20 ADD PUSH1 0x40 MLOAD SWAP1 DUP2 ADD PUSH1 0x40 MSTORE DUP1 SWAP3 SWAP2 SWAP1 DUP2 DUP2 MSTORE PUSH1 0x20 ADD DUP3 DUP1 SLOAD PUSH2 0x22A SWAP1 PUSH2 0x5B6 JUMP JUMPDEST DUP1 ISZERO PUSH2 0x275 JUMPI DUP1 PUSH1 0x1F LT PUSH2 0x24C JUMPI PUSH2 0x100 DUP1 DUP4 SLOAD DIV MUL DUP4 MSTORE SWAP2 PUSH1 0x20 ADD SWAP2 PUSH2 0x275 JUMP JUMPDEST DUP3 ADD SWAP2 SWAP1 PUSH0 MSTORE PUSH1 0x20 PUSH0 KECCAK256 SWAP1 JUMPDEST DUP2 SLOAD DUP2 MSTORE SWAP1 PUSH1 0x1 ADD SWAP1 PUSH1 0x20 ADD DUP1 DUP4 GT PUSH2 0x258 JUMPI DUP3 SWAP1 SUB PUSH1 0x1F AND DUP3 ADD SWAP2 JUMPDEST POP POP POP POP POP SWAP1 POP DUP3 JUMP JUMPDEST PUSH0 DUP1 SLOAD SWAP1 POP SWAP1 JUMP JUMPDEST PUSH0 PUSH1 0x40 MLOAD SWAP1 POP SWAP1 JUMP JUMPDEST PUSH0 DUP1 REVERT JUMPDEST PUSH0 DUP1 REVERT JUMPDEST PUSH0 DUP1 REVERT JUMPDEST PUSH0 DUP1 REVERT JUMPDEST PUSH0 PUSH1 0x1F NOT PUSH1 0x1F DUP4 ADD AND SWAP1 POP SWAP2 SWAP1 POP JUMP JUMPDEST PUSH32 0x4E487B7100000000000000000000000000000000000000000000000000000000 PUSH0 MSTORE PUSH1 0x41 PUSH1 0x4 MSTORE PUSH1 0x24 PUSH0 REVERT JUMPDEST PUSH2 0x2E6 DUP3 PUSH2 0x2A0 JUMP JUMPDEST DUP2 ADD DUP2 DUP2 LT PUSH8 0xFFFFFFFFFFFFFFFF DUP3 GT OR ISZERO PUSH2 0x305 JUMPI PUSH2 0x304 PUSH2 0x2B0 JUMP JUMPDEST JUMPDEST DUP1 PUSH1 0x40 MSTORE POP POP POP JUMP JUMPDEST PUSH0 PUSH2 0x317 PUSH2 0x287 JUMP JUMPDEST SWAP1 POP PUSH2 0x323 DUP3 DUP3 PUSH2 0x2DD JUMP JUMPDEST SWAP2 SWAP1 POP JUMP JUMPDEST PUSH0 PUSH8 0xFFFFFFFFFFFFFFFF DUP3 GT ISZERO PUSH2 0x342 JUMPI PUSH2 0x341 PUSH2 0x2B0 JUMP JUMPDEST JUMPDEST PUSH2 0x34B DUP3 PUSH2 0x2A0 JUMP JUMPDEST SWAP1 POP PUSH1 0x20 DUP2 ADD SWAP1 POP SWAP2 SWAP1 POP JUMP JUMPDEST DUP3 DUP2 DUP4 CALLDATACOPY PUSH0 DUP4 DUP4 ADD MSTORE POP POP POP JUMP JUMPDEST PUSH0 PUSH2 0x378 PUSH2 0x373 DUP5 PUSH2 0x328 JUMP JUMPDEST PUSH2 0x30E JUMP JUMPDEST SWAP1 POP DUP3 DUP2 MSTORE PUSH1 0x20 DUP2 ADD DUP5 DUP5 DUP5 ADD GT ISZERO PUSH2 0x394 JUMPI PUSH2 0x393 PUSH2 0x29C JUMP JUMPDEST JUMPDEST PUSH2 0x39F DUP5 DUP3 DUP6 PUSH2 0x358 JUMP JUMPDEST POP SWAP4 SWAP3 POP POP POP JUMP JUMPDEST PUSH0 DUP3 PUSH1 0x1F DUP4 ADD SLT PUSH2 0x3BB JUMPI PUSH2 0x3BA PUSH2 0x298 JUMP JUMPDEST JUMPDEST DUP2 CALLDATALOAD PUSH2 0x3CB DUP5 DUP3 PUSH1 0x20 DUP7 ADD PUSH2 0x366 JUMP JUMPDEST SWAP2 POP POP SWAP3 SWAP2 POP POP JUMP JUMPDEST PUSH0 PUSH1 0x20 DUP3 DUP5 SUB SLT ISZERO PUSH2 0x3E9 JUMPI PUSH2 0x3E8 PUSH2 0x290 JUMP JUMPDEST JUMPDEST PUSH0 DUP3 ADD CALLDATALOAD PUSH8 0xFFFFFFFFFFFFFFFF DUP2 GT ISZERO PUSH2 0x406 JUMPI PUSH2 0x405 PUSH2 0x294 JUMP JUMPDEST JUMPDEST PUSH2 0x412 DUP5 DUP3 DUP6 ADD PUSH2 0x3A7 JUMP JUMPDEST SWAP2 POP POP SWAP3 SWAP2 POP POP JUMP JUMPDEST PUSH0 DUP2 SWAP1 POP SWAP2 SWAP1 POP JUMP JUMPDEST PUSH2 0x42D DUP2 PUSH2 0x41B JUMP JUMPDEST DUP3 MSTORE POP POP JUMP JUMPDEST PUSH0 PUSH1 0x20 DUP3 ADD SWAP1 POP PUSH2 0x446 PUSH0 DUP4 ADD DUP5 PUSH2 0x424 JUMP JUMPDEST SWAP3 SWAP2 POP POP JUMP JUMPDEST PUSH2 0x455 DUP2 PUSH2 0x41B JUMP JUMPDEST DUP2 EQ PUSH2 0x45F JUMPI PUSH0 DUP1 REVERT JUMPDEST POP JUMP JUMPDEST PUSH0 DUP2 CALLDATALOAD SWAP1 POP PUSH2 0x470 DUP2 PUSH2 0x44C JUMP JUMPDEST SWAP3 SWAP2 POP POP JUMP JUMPDEST PUSH0 PUSH1 0x20 DUP3 DUP5 SUB SLT ISZERO PUSH2 0x48B JUMPI PUSH2 0x48A PUSH2 0x290 JUMP JUMPDEST JUMPDEST PUSH0 PUSH2 0x498 DUP5 DUP3 DUP6 ADD PUSH2 0x462 JUMP JUMPDEST SWAP2 POP POP SWAP3 SWAP2 POP POP JUMP JUMPDEST PUSH0 DUP1 PUSH1 0x40 DUP4 DUP6 SUB SLT ISZERO PUSH2 0x4B7 JUMPI PUSH2 0x4B6 PUSH2 0x290 JUMP JUMPDEST JUMPDEST PUSH0 DUP4 ADD CALLDATALOAD PUSH8 0xFFFFFFFFFFFFFFFF DUP2 GT ISZERO PUSH2 0x4D4 JUMPI PUSH2 0x4D3 PUSH2 0x294 JUMP JUMPDEST JUMPDEST PUSH2 0x4E0 DUP6 DUP3 DUP7 ADD PUSH2 0x3A7 JUMP JUMPDEST SWAP3 POP POP PUSH1 0x20 PUSH2 0x4F1 DUP6 DUP3 DUP7 ADD PUSH2 0x462 JUMP JUMPDEST SWAP2 POP POP SWAP3 POP SWAP3 SWAP1 POP JUMP JUMPDEST PUSH0 DUP2 MLOAD SWAP1 POP SWAP2 SWAP1 POP JUMP JUMPDEST PUSH0 DUP3 DUP3 MSTORE PUSH1 0x20 DUP3 ADD SWAP1 POP SWAP3 SWAP2 POP POP JUMP JUMPDEST DUP3 DUP2 DUP4 MCOPY PUSH0 DUP4 DUP4 ADD MSTORE POP POP POP JUMP JUMPDEST PUSH0 PUSH2 0x52D DUP3 PUSH2 0x4FB JUMP JUMPDEST PUSH2 0x537 DUP2 DUP6 PUSH2 0x505 JUMP JUMPDEST SWAP4 POP PUSH2 0x547 DUP2 DUP6 PUSH1 0x20 DUP7 ADD PUSH2 0x515 JUMP JUMPDEST PUSH2 0x550 DUP2 PUSH2 0x2A0 JUMP JUMPDEST DUP5 ADD SWAP2 POP POP SWAP3 SWAP2 POP POP JUMP JUMPDEST PUSH0 PUSH1 0x40 DUP3 ADD SWAP1 POP PUSH2 0x56E PUSH0 DUP4 ADD DUP6 PUSH2 0x424 JUMP JUMPDEST DUP2 DUP2 SUB PUSH1 0x20 DUP4 ADD MSTORE PUSH2 0x580 DUP2 DUP5 PUSH2 0x523 JUMP JUMPDEST SWAP1 POP SWAP4 SWAP3 POP POP POP JUMP JUMPDEST PUSH32 0x4E487B7100000000000000000000000000000000000000000000000000000000 PUSH0 MSTORE PUSH1 0x22 PUSH1 0x4 MSTORE PUSH1 0x24 PUSH0 REVERT JUMPDEST PUSH0 PUSH1 0x2 DUP3 DIV SWAP1 POP PUSH1 0x1 DUP3 AND DUP1 PUSH2 0x5CD JUMPI PUSH1 0x7F DUP3 AND SWAP2 POP JUMPDEST PUSH1 0x20 DUP3 LT DUP2 SUB PUSH2 0x5E0 JUMPI PUSH2 0x5DF PUSH2 0x589 JUMP JUMPDEST JUMPDEST POP SWAP2 SWAP1 POP JUMP JUMPDEST PUSH0 DUP2 SWAP1 POP DUP2 PUSH0 MSTORE PUSH1 0x20 PUSH0 KECCAK256 SWAP1 POP SWAP2 SWAP1 POP JUMP JUMPDEST PUSH0 PUSH1 0x20 PUSH1 0x1F DUP4 ADD DIV SWAP1 POP SWAP2 SWAP1 POP JUMP JUMPDEST PUSH0 DUP3 DUP3 SHL SWAP1 POP SWAP3 SWAP2 POP POP JUMP JUMPDEST PUSH0 PUSH1 0x8 DUP4 MUL PUSH2 0x642 PUSH32 0xFFFFFFFFFFFFFFFFFFFFFFFFFFFFFFFFFFFFFFFFFFFFFFFFFFFFFFFFFFFFFFFF DUP3 PUSH2 0x607 JUMP JUMPDEST PUSH2 0x64C DUP7 DUP4 PUSH2 0x607 JUMP JUMPDEST SWAP6 POP DUP1 NOT DUP5 AND SWAP4 POP DUP1 DUP7 AND DUP5 OR SWAP3 POP POP POP SWAP4 SWAP3 POP POP POP JUMP JUMPDEST PUSH0 DUP2 SWAP1 POP SWAP2 SWAP1 POP JUMP JUMPDEST PUSH0 PUSH2 0x687 PUSH2 0x682 PUSH2 0x67D DUP5 PUSH2 0x41B JUMP JUMPDEST PUSH2 0x664 JUMP JUMPDEST PUSH2 0x41B JUMP JUMPDEST SWAP1 POP SWAP2 SWAP1 POP JUMP JUMPDEST PUSH0 DUP2 SWAP1 POP SWAP2 SWAP1 POP JUMP JUMPDEST PUSH2 0x6A0 DUP4 PUSH2 0x66D JUMP JUMPDEST PUSH2 0x6B4 PUSH2 0x6AC DUP3 PUSH2 0x68E JUMP JUMPDEST DUP5 DUP5 SLOAD PUSH2 0x613 JUMP JUMPDEST DUP3 SSTORE POP POP POP POP JUMP JUMPDEST PUSH0 SWAP1 JUMP JUMPDEST PUSH2 0x6C8 PUSH2 0x6BC JUMP JUMPDEST PUSH2 0x6D3 DUP2 DUP5 DUP5 PUSH2 0x697 JUMP JUMPDEST POP POP POP JUMP JUMPDEST JUMPDEST DUP2 DUP2 LT ISZERO PUSH2 0x6F6 JUMPI PUSH2 0x6EB PUSH0 DUP3 PUSH2 0x6C0 JUMP JUMPDEST PUSH1 0x1 DUP2 ADD SWAP1 POP PUSH2 0x6D9 JUMP JUMPDEST POP POP JUMP JUMPDEST PUSH1 0x1F DUP3 GT ISZERO PUSH2 0x73B JUMPI PUSH2 0x70C DUP2 PUSH2 0x5E6 JUMP JUMPDEST PUSH2 0x715 DUP5 PUSH2 0x5F8 JUMP JUMPDEST DUP2 ADD PUSH1 0x20 DUP6 LT ISZERO PUSH2 0x724 JUMPI DUP2 SWAP1 POP JUMPDEST PUSH2 0x738 PUSH2 0x730 DUP6 PUSH2 0x5F8 JUMP JUMPDEST DUP4 ADD DUP3 PUSH2 0x6D8 JUMP JUMPDEST POP POP JUMPDEST POP POP POP JUMP JUMPDEST PUSH0 DUP3 DUP3 SHR SWAP1 POP SWAP3 SWAP2 POP POP JUMP JUMPDEST PUSH0 PUSH2 0x75B PUSH0 NOT DUP5 PUSH1 0x8 MUL PUSH2 0x740 JUMP JUMPDEST NOT DUP1 DUP4 AND SWAP2 POP POP SWAP3 SWAP2 POP POP JUMP JUMPDEST PUSH0 PUSH2 0x773 DUP4 DUP4 PUSH2 0x74C JUMP JUMPDEST SWAP2 POP DUP3 PUSH1 0x2 MUL DUP3 OR SWAP1 POP SWAP3 SWAP2 POP POP JUMP JUMPDEST PUSH2 0x78C DUP3 PUSH2 0x4FB JUMP JUMPDEST PUSH8 0xFFFFFFFFFFFFFFFF DUP2 GT ISZERO PUSH2 0x7A5 JUMPI PUSH2 0x7A4 PUSH2 0x2B0 JUMP JUMPDEST JUMPDEST PUSH2 0x7AF DUP3 SLOAD PUSH2 0x5B6 JUMP JUMPDEST PUSH2 0x7BA DUP3 DUP3 DUP6 PUSH2 0x6FA JUMP JUMPDEST PUSH0 PUSH1 0x20 SWAP1 POP PUSH1 0x1F DUP4 GT PUSH1 0x1 DUP2 EQ PUSH2 0x7EB JUMPI PUSH0 DUP5 ISZERO PUSH2 0x7D9 JUMPI DUP3 DUP8 ADD MLOAD SWAP1 POP JUMPDEST PUSH2 0x7E3 DUP6 DUP3 PUSH2 0x768 JUMP JUMPDEST DUP7 SSTORE POP PUSH2 0x84A JUMP JUMPDEST PUSH1 0x1F NOT DUP5 AND PUSH2 0x7F9 DUP7 PUSH2 0x5E6 JUMP JUMPDEST PUSH0 JUMPDEST DUP3 DUP2 LT ISZERO PUSH2 0x820 JUMPI DUP5 DUP10 ADD MLOAD DUP3 SSTORE PUSH1 0x1 DUP3 ADD SWAP2 POP PUSH1 0x20 DUP6 ADD SWAP5 POP PUSH1 0x20 DUP2 ADD SWAP1 POP PUSH2 0x7FB JUMP JUMPDEST DUP7 DUP4 LT ISZERO PUSH2 0x83D JUMPI DUP5 DUP10 ADD MLOAD PUSH2 0x839 PUSH1 0x1F DUP10 AND DUP3 PUSH2 0x74C JUMP JUMPDEST DUP4 SSTORE POP JUMPDEST PUSH1 0x1 PUSH1 0x2 DUP9 MUL ADD DUP9 SSTORE POP POP POP JUMPDEST POP POP POP POP POP POP JUMP JUMPDEST PUSH0 DUP2 SWAP1 POP SWAP3 SWAP2 POP POP JUMP JUMPDEST PUSH0 PUSH2 0x866 DUP3 PUSH2 0x4FB JUMP JUMPDEST PUSH2 0x870 DUP2 DUP6 PUSH2 0x852 JUMP JUMPDEST SWAP4 POP PUSH2 0x880 DUP2 DUP6 PUSH1 0x20 DUP7 ADD PUSH2 0x515 JUMP JUMPDEST DUP1 DUP5 ADD SWAP2 POP POP SWAP3 SWAP2 POP POP JUMP JUMPDEST PUSH0 PUSH2 0x897 DUP3 DUP5 PUSH2 0x85C JUMP JUMPDEST SWAP2 POP DUP2 SWAP1 POP SWAP3 SWAP2 POP POP JUMP INVALID LOG2 PUSH5 0x6970667358 0x22 SLT KECCAK256 TSTORE LOG0 DUP5 PUSH9 0x2343B0C8B570D1976C 0xB7 DUP1 CALLCODE DUP11 DUP13 PUSH27 0x5A9281D00FB42FEE639D885D8964736F6C634300081A0033A26469 PUSH17 0x667358221220CEA78229B67DE1730B2B5E SLOAD 0x1E SIGNEXTEND PC 0xD PUSH18 0x43905CC3E8639396ED65556E97501264736F PUSH13 0x634300081A0033000000000000 "
		},
		"gasEstimates": {
			"creation": {
				"codeDepositCost": "583000",
				"executionCost": "617",
				"totalCost": "583617"
			},
			"external": {
				"createSimpleStorageContract()": "infinite",
				"simpleStorageArray(uint256)": "infinite"
			}
		},
		"methodIdentifiers": {
			"createSimpleStorageContract()": "1dda6541",
			"simpleStorageArray(uint256)": "64591bf1"
		}
	},
	"abi": [
		{
			"inputs": [],
			"name": "createSimpleStorageContract",
			"outputs": [],
			"stateMutability": "nonpayable",
			"type": "function"
		},
		{
			"inputs": [
				{
					"internalType": "uint256",
					"name": "",
					"type": "uint256"
				}
			],
			"name": "simpleStorageArray",
			"outputs": [
				{
					"internalType": "contract SimpleStorage",
					"name": "",
					"type": "address"
				}
			],
			"stateMutability": "view",
			"type": "function"
		}
	]
}